:1000000000308A0019280000233084008313000880
:10001000031918280130F800F701F70B0D28F80B29
:100020000C284A30F700F70B13281628800B0A28F3
:10003000080003081F398300FF30A20083161F1435
:100040009F141F159F1107309C0083138601831294
:1000500086010030A2008316870183128701831670
:1000600086018330831286000030A2008316870148
:10007000833083128700A101A0012108013C031CE9
:100080006028031D47282008F33C031C60280A3021
:10009000A30004202008903C031D5C28210B5C2851
:1000A000831686018F30831286000030A2008316EB
:1000B00087018F3083128700A00A0319A10A3D2807
:1000C000831686017030831286000030A2008316EA
:1000D0008701703083128700A101A0012108013C33
:1000E000031C9128031D78282008F33C031C912849
:1000F0000A30A30004202008903C031D8D28210B0A
:100100008D28831686017C30831286000030A20081
:10011000831687017C3083128700A00A0319A10A85
:060120006E282F28630089
:02400E00713F00
:00000001FF
;PIC16F877A
;CRC=C9AC  CREATED="11-Nis-23 20:49"
