:1000000001308A006C2900000A108A100A11820748
:100010003F3406345B344F3466346D347D340734FA
:100020006F3408342908F801280203181A28280810
:10003000F7002628F7010830AA00A80DF70D2908B7
:1000400077020318F700F80DAA0B1D2808002008F6
:10005000A8000A30A90012207808A4002008A800EF
:100060000A30A90012207708A3002008A8000A304F
:10007000A90012207808A6002008A8000A30A900CC
:1000800012207708A5000800283084008313000898
:10009000031958280130F800F701F70B4D28F80B29
:1000A0004C284A30F700F70B53285628800B4A2873
:1000B00008002710270883168700831207102608D8
:1000C0000420A800831686018312280886000530C4
:1000D000A8004420271027088316870083120714DE
:1000E000A71027088316870083128710250804208D
:1000F000A800831686018312280886000530A80010
:100100004420A7102708831687008312871427111D
:10011000270883168700831207118316860183122E
:10012000290886000530A8004420271127088316D7
:10013000870083120715A7112708831687008312EB
:100140008711831686018312290886000530A800CE
:100150004420A711270883168700831287152712CA
:100160002708831687008312071222080420A8009C
:10017000831686018312280886000530A8004420D3
:10018000271227088316870083120716A71227084D
:10019000831687008312871283168601831229082B
:1001A00086000530A8004420A71227088316870080
:1001B00083128716271327088316870083120713D5
:1001C00024080420A80083168601831228088600CC
:1001D0000530A800442027132708831687008312C0
:1001E0000717A7132708831687008312871323088E
:1001F0000420A80083168601831228088600053093
:10020000A8004420A71327088316870083128717A6
:10021000080083168515831285191B29A00A20085A
:10022000643C0319A00127208316851583128519C4
:100230001B2959201429831605168312051A2F2904
:10024000A00A2008FF3C031D27296330A0002720B7
:10025000831605168312051A2F295920282983167B
:1002600085148312851842290230A1072108653CB4
:100270000319A101272083168514831285184229AA
:1002800059203B298316051583120519552901307C
:10029000A102210F4D296330A100272083160515E7
:1002A00083120519552959204E29831605148312E6
:1002B000051869290130A2072208033C031D6229A1
:1002C0000130A200831605158312051969295920EA
:1002D00062298A110A12842903081F398300A001A8
:1002E0000530A1000130A200FF30A70083161F14C3
:1002F0009F141F159F1107309C00831386018312E2
:0C0300008601272059200929822963006A
:02400E00713F00
:00000001FF
;PIC16F877A
;CRC=15C4  CREATED="11-Nis-23 22:36"
