:100000002500170A00002500170A060A16024306F3
:10001000160A020C31007000F0020C0AF1020B0A01
:10002000970C3000F002120AF602090A330A640043
:100030007400FF0C3500C704E704000C020015042F
:1000400015020600060535041502060026045504AF
:100050001502060046047505150206006606570AD5
:10006000320C3600050A75051502060066063A0AC6
:10007000B402330AD4024B0A5504150206004605A1
:1000800015041502060006043504150206002605AF
:10009000FF0C3400570A55041502060046041504E7
:1000A00015020600060535041502060026042B0A73
:0200B00003004B
:021FFE00EB0FE7
:00000001FF
;PIC10F220
;CRC=9584  CREATED="09-Nis-23 00:12"
